:1000000002308A00F32A00000A108A100A118207BF
:1000100028340C34013406340C00202A6539ED37BD
:10002000ED3274396F050001A0316F372026CD19EC
:1000300035000C00D4326D3820100001EF210A0089
:10004000F6376C3AA031E1392000200020003B3027
:1000500084008313000803193B280130F800F701DE
:10006000F70B3028F80B2F284A30F700F70B36280B
:100070003928800B2D280800420EF039F7000F3088
:1000800008057704880000000814462808100800B6
:100090000808F700080E0F39F800080088100F3024
:1000A00083160805F038880083120815000008142C
:1000B000000048207808C200081000000814000062
:1000C00048207808C10008100F3083160805880002
:1000D0008312420EF700F030F70577084104F8006C
:1000E0007808C100C11B4F283F1C88103F18881496
:1000F0000000081100000810400EC1000F30C105BB
:100100004108C2003C2040080F39C100C2003C2019
:1001100008000F30831608058800081088100811A1
:1001200083128810081108100F30BB0027200130FF
:10013000AD002D08033C031CA5280330C2003C2061
:100140000530BB002720AD0A99280230C2003C20B0
:10015000AD012D08033C031CB6282D080420AE0079
:10016000BF012E08C0004E20AD0AA9288A110A122C
:10017000082B3C0BBC28BF284030BD00C028BD0167
:1001800001303B02BD073D088038BE00BF013E087C
:10019000C0004E2008003A080C3A0319D628063A47
:1001A0000319DE28023A0319E428E928BF010130C7
:1001B000C0004E200230BB002720EF280130BB00DA
:1001C0000230BC00B920EF28BF011030C0004E2023
:1001D000EF280130BF003A08C0004E20EF28080089
:1001E000831603178C170C140000000083120C08F0
:1001F0007F39031934290313AD0003170D080313C6
:10020000AE0003170F080313AF002D08BA00CB2070
:100210002E0803178D0003132F0803178F00831672
:100220008C170C140000000083120C0D0E0D7F398A
:10023000031934290313AD0003170D080313AE008F
:1002400003170F080313AF002D08BA00CB202E08A8
:1002500003178D0003132F0803178F008D0A03194E
:100260008F0A0313F0280317031308008E30F700DA
:100270002E08F8002D08F900FA01F808031D4A2994
:100280007908F800F9010830F702F808031D4A2937
:10029000F70152290310F81B5129F90DF80DF70346
:1002A0004A29F8138A110A128C2B3A080319C52916
:1002B000C2003E080319C529C207031866297F300A
:1002C000C202031CC5290319C5296A298130C20746
:1002D0000318C5294208F700F801F901FA013B08A3
:1002E000C600C6173C08C5003D08C4001830C2004F
:1002F000C301441C93294108FA07031C8529F90A04
:10030000031D8529F80A0319C3174008F907031CC0
:100310008C29F80A0319C3173F08BC00BC173C0816
:10032000F8070318C317C30DF80CF90CFA0CC60C28
:10033000C50CC40C0310C20B78290130F707031851
:10034000C529F81BAA29C60DFA0DF90DF80DF703FA
:100350000319C529C61FBB29FA0A031DBB29F90ABF
:10036000031DBB29F80A031DBB29F80CF90CFA0C74
:10037000F70A0319C5293B08C3003F08C306C31F7A
:10038000C329F817C929F813C929F701F801F90198
:10039000FA010800F701F801F901FA01C201C301ED
:1003A000C401C501410840043F043E040319082A62
:1003B0002030C6000310BA0DBB0DBC0DBD0DC20D23
:1003C000C30DC40DC50D41084502031DF1294008A8
:1003D0004402031DF1293F084302031DF1293E0891
:1003E0004202031C022A3E08C2023F08031C3F0FC0
:1003F000C3024008031C400FC4024108031C410F04
:10040000C5020314F70DF80DF90DFA0DC60BDA2924
:1004100042308400831308000408B2003108B4009D
:1004200003192B2A3008BD002F08BC002E08BB0082
:100430002D08BA00C101C0012030BF008230BE00CB
:1004400055217A08B0007908AF007808AE00770827
:10045000AD00B40B122A3008BD002F08BC002E08D6
:10046000BB002D08BA003A08B63CBA00FA013B08B6
:10047000BE00BB170310BB0CBC0CBD0CFA0CF90C76
:10048000F80CF70CBA0B3A2ABE1F512AF709F809E3
:10049000F909FA09F70A0319F80A0319F90A0319FD
:1004A000FA0A7A08B0007908AF007808AE00770839
:1004B000AD00B01F682AB203B216AD09AE09AF098C
:1004C000B009AD0A0319AE0A0319AF0A0319B00A3D
:1004D0003B30B9009A30B800CA30B700B6010A30D4
:1004E000B40031080319B20A3008BD002F08BC005F
:1004F0002E08BB002D08BA003908C1003808C0001A
:100500003708BF003608BE00CA210008AD00840AC3
:100510000008AE00840A0008AF00840A0008B0009A
:10052000FD308407F708031DA82A310A3402031995
:10053000A82A32080319AA2A0F3934020319A22A59
:100540000318DA2AB21BDA2A321BAA2A2030D62A4A
:100550002030B205B21EB82AB2123108031DB20310
:100560007708B2002D30BA00CB203208F700B20174
:1005700031083402031DC62A7708B2002E30BA00B3
:10058000CB203208F7002030B20500303030B21EE8
:10059000D62AB2123108031DB2037708B2002D30FB
:1005A000BA00CB203208F700B2013030F7077708E5
:1005B000BA00CB203908BD003808BC003708BB00A2
:1005C0003608BA00C101C001BF010A30BE00CA210D
:1005D0007A08B9007908B8007808B7007708B6003B
:1005E000B40B742A0800840183131F30830583161B
:1005F00003170908C039890003131F129F12003026
:100600000317880083128701880189010313892851
:100610000C3003178D0000308F000313F0200D30D5
:1006200003178D0000308F000313F02014300317E0
:100630008D0000308F000313F0200830AD00FA3039
:10064000BB002720AD0B1F2B193003178D00003086
:100650008F000313F0201A3003178D0000308F0035
:100660000313F0200430AD00FA30BB002720AD0B9F
:10067000342B0C30BB000130BC00B9201E300317F6
:100680008D0000308F000313F020203003178D0001
:1006900000308F000313F0200130831685000030F6
:1006A000880003170908C0391F38890003131F1277
:1006B0009F12FF3003178800831203131F179F1721
:1006C00083169F1783121F140630BB000130BC0035
:1006D000B920253003178D0000308F000313F02060
:1006E0000630BB000130BC00B9200030F8001F0804
:1006F000C33978049F000630F700F70B7D2B00000C
:100700009F149F18812B1E08FA0083161E0883125F
:10071000AD001E08AE0036297A08A8007908A700A7
:100720007808A6007708A5002808BD002708BC00A7
:100730002608BB002508BA002730C1003130C000B0
:100740004830BF007A30BE0055217A08A4007908ED
:10075000A3007808A2007708A1002808BD00270898
:10076000BC002608BB002508BA008430C1002B302D
:10077000C0002030BF007730BE0055217A08AC00A1
:100780007908AB007808AA007708A9002030BA00E1
:10079000CB20C93084002408B0002308AF00220811
:1007A000AE002108AD000330B1000C220430AD00D2
:1007B000FA30BB002720AD0BD82B0A30BB0002302B
:1007C000BC00B920263003178D0000308F000313C2
:1007D000F0200A30BB000230BC00B920C9308400D0
:1007E0002C08B0002B08AF002A08AE002908AD0085
:1007F0000230B1000C222030BA00CB207630BA0093
:06080000CB20642B630015
:04400E00C42FFF3F7D
:00000001FF
;PIC16F887
;CRC=C592  CREATED="08-may.-19 11:05"
